:020000040800F2
:10000000002800208118000811180008171800089F
:100010001D18000823180008291800080000000017
:100020000000000000000000000000002F18000881
:100030003B1800080000000047180008531800088B
:10004000C9180008C9180008C9180008C91800080C
:10005000C9180008C9180008C9180008C9180008FC
:10006000C9180008C9180008C9180008C9180008EC
:10007000C9180008C9180008C9180008C9180008DC
:10008000C9180008C9180008C9180008C9180008CC
:10009000C9180008C9180008C9180008C9180008BC
:1000A000C9180008C9180008C9180008C9180008AC
:1000B00061180008C918000800000000C9180008ED
:1000C000C91800080000000000000000C91800085E
:1000D00000000000C9180008C9180008000000004E
:1000E000C9180008C9180008C91800080000000055
:1000F0000000000000000000000000000000000000
:0C01000000000000000000005FF808F1A3
:10010C0010B5054C237833B9044B13B10448AFF345
:10011C0000800123237010BD30000020000000007F
:10012C00CC2E000808B5034B1BB103490348AFF3B1
:10013C00008008BD0000000034000020CC2E000818
:10014C0080B400AF294B1B68092B06DC284B00221E
:10015C001A60264B1B68264A5360244B1B68092BDC
:10016C0018DD224B1B68234A82FB03129210DB170B
:10017C00D31A1F4A13601D4B19681E4B83FB0123B6
:10018C009A10CB17D21A13469B0013445B00CA1A61
:10019C00174B5A60184B1B68092B06DC144B0022BA
:1001AC009A60154B1B68124AD360134B1B68092BC2
:1001BC0018DD114B1B680F4A82FB03129210DB17E0
:1001CC00D31A0B4A13600C4B19680A4B83FB01239F
:1001DC009A10CB17D21A13469B0013445B00CA1A11
:1001EC00034B5A6000BFBD4680BC7047180000200E
:1001FC0000000020676666661C00002080B400AF1B
:10020C00134B1B680133124A1360114B1B683B2BB9
:10021C0007DD0F4B00221A600E4B1B6801330D4A91
:10022C0013600C4B1B683B2B07DD0A4B00221A603A
:10023C00094B1B680133084A1360074B1B68172BCB
:10024C0002DD054B00221A6000BFBD4680BC704722
:10025C00200000201C0000201800002080B582B077
:10026C0000AF78607B68002B22D100220121BD48B1
:10027C0001F010FE00220221BA4801F00BFE002210
:10028C000421B84801F006FE00220821B54801F00F
:10029C0001FE00221021B34801F0FCFD00222021B8
:1002AC00B04801F0F7FD01224021AE4801F0F2FD0B
:1002BC007B68012B22D101220121AA4801F0EAFD21
:1002CC0000220221A74801F0E5FD00220421A548E7
:1002DC0001F0E0FD01220821A24801F0DBFD012222
:1002EC001021A04801F0D6FD012220219D4801F0EB
:1002FC00D1FD012240219B4801F0CCFD7B68022BF3
:10030C0022D100220121974801F0C4FD00220221D4
:10031C00944801F0BFFD01220421924801F0BAFD7E
:10032C00002208218F4801F0B5FD002210218D48D4
:10033C0001F0B0FD012220218A4801F0ABFD002222
:10034C004021884801F0A6FD7B68032B22D10022B6
:10035C000121844801F09EFD00220221814801F018
:10036C0099FD002204217F4801F094FD0022082110
:10037C007C4801F08FFD012210217A4801F08AFDA2
:10038C0001222021774801F085FD0022402175488B
:10039C0001F080FD7B68042B22D1012201217148E0
:1003AC0001F078FD002202216E4801F073FD00225D
:1003BC0004216C4801F06EFD01220821694801F00E
:1003CC0069FD01221021674801F064FD0022202103
:1003DC00644801F05FFD00224021624801F05AFDA3
:1003EC007B68052B22D1002201215E4801F052FDD1
:1003FC00012202215B4801F04DFD002204215948E5
:10040C0001F048FD00220821564801F043FD01226D
:10041C001021544801F03EFD00222021514801F0EA
:10042C0039FD002240214F4801F034FD7B68062B3A
:10043C0022D1002201214B4801F02CFD0122022186
:10044C00484801F027FD00220421464801F022FD16
:10045C0000220821434801F01DFD002210214148D3
:10046C0001F018FD002220213E4801F013FD00226E
:10047C0040213C4801F00EFD7B68072B22D1002265
:10048C000121384801F006FD00220221354801F017
:10049C0001FD00220421334801F0FCFC012208215B
:1004AC00304801F0F7FC012210212E4801F0F2FC3B
:1004BC00012220212B4801F0EDFC0122402129488A
:1004CC0001F0E8FC7B68082B22D100220121254891
:1004DC0001F0E0FC00220221224801F0DBFC0022AA
:1004EC000421204801F0D6FC002208211D4801F00F
:1004FC00D1FC002210211B4801F0CCFC0022202151
:10050C00184801F0C7FC00224021164801F0C2FC3B
:10051C007B68092B22D100220121124801F0BAFC80
:10052C00002202210F4801F0B5FC002204210D48E5
:10053C0001F0B0FC002208210A4801F0ABFC0122BA
:10054C001021084801F0A6FC00222021054801F0EA
:10055C00A1FC00224021034801F09CFC00BF08379D
:10056C00BD4680BD000C014080B582B000AF786004
:10057C007B68032B7AD801A252F823F09905000866
:10058C00D105000809060008410600080022402198
:10059C00394801F07FFC01228021374801F07AFCB8
:1005AC0001224FF48071344801F074FC01224FF4A5
:1005BC000071314801F06EFC304B1B681846FFF798
:1005CC004DFE54E0002280212B4801F063FC0122F7
:1005DC004021294801F05EFC01224FF4807126482D
:1005EC0001F058FC01224FF40071234801F052FC39
:1005FC00224B5B681846FFF731FE38E000224FF4BF
:10060C0080711D4801F046FC012240211A4801F07E
:10061C0041FC01228021184801F03CFC01224FF4DE
:10062C000071154801F036FC144B9B681846FFF717
:10063C0015FE1CE000224FF400710F4801F02AFC5B
:10064C00012240210C4801F025FC012280210A489E
:10065C0001F020FC01224FF48071074801F01AFCD4
:10066C00064BDB681846FFF7F9FD00E000BF00BF42
:10067C000837BD4680BD00BF0008014000000020C7
:10068C0080B584B000AF786039600123FB607B6873
:10069C00002B40F0C38000224FF48071B14801F070
:1006AC00F9FB01224FF40071AE4801F0F3FB01227B
:1006BC004FF48061AB4801F0EDFB01224FF4006177
:1006CC00A84801F0E7FB01224FF48051A54801F046
:1006DC00E1FB01224FF40051A24801F0DBFB0122A7
:1006EC004FF480419F4801F0D5FB01224FF40041AB
:1006FC009C4801F0CFFB3B685AB2FB685BB21340DD
:10070C005BB2DBB2C3F10103DBB21A464FF480617A
:10071C00954801F0BFFB3B685B103B603B685AB2ED
:10072C00FB685BB213405BB2DBB2C3F10103DBB21B
:10073C001A464FF400618C4801F0ACFB3B685B102F
:10074C003B603B685AB2FB685BB213405BB2DBB2F6
:10075C00C3F10103DBB21A464FF48051824801F019
:10076C0099FB3B685B103B603B685AB2FB685BB221
:10077C0013405BB2DBB2C3F10103DBB21A464FF498
:10078C000051794801F086FB3B685B103B603B688D
:10079C005AB2FB685BB213405BB2DBB2C3F101032C
:1007AC00DBB21A464FF480416F4801F073FB3B6893
:1007BC005B103B603B685AB2FB685BB213405BB2A8
:1007CC00DBB2C3F10103DBB21A464FF400416648B9
:1007DC0001F060FB3B685B103B603B685AB2FB6806
:1007EC005BB213405BB2DBB2C3F10103DBB21A465E
:1007FC0004215D4801F04EFB3B685B103B603B689D
:10080C005AB2FB685BB213405BB2DBB2C3F10103BB
:10081C00DBB21A460821544801F03CFB7B68012BE3
:10082C0040F0C88001224FF480714E4801F032FB39
:10083C0000224FF400714B4801F02CFB01224FF4C5
:10084C008061484801F026FB01224FF400614548C5
:10085C0001F020FB01224FF48051424801F01AFBB9
:10086C0001224FF400513F4801F014FB01224FF4D8
:10087C0080413C4801F00EFB01224FF40041394805
:10088C0001F008FB3B685AB2FB685BB213405BB2E9
:10089C00DBB2C3F10103DBB21A464FF4806132487C
:1008AC0001F0F8FA3B685B103B603B685AB2FB689E
:1008BC005BB213405BB2DBB2C3F10103DBB21A468D
:1008CC004FF40061284801F0E5FA3B685B103B608F
:1008DC003B685AB2FB685BB213405BB2DBB2C3F14C
:1008EC000103DBB21A464FF480511F4801F0D2FAD3
:1008FC003B685B103B603B685AB2FB685BB21340D1
:10090C005BB2DBB2C3F10103DBB21A464FF4005108
:10091C00154801F0BFFA3B685B103B603B685AB26C
:10092C00FB685BB213405BB2DBB2C3F10103DBB219
:10093C001A464FF480410C4801F0ACFA3B685B104E
:10094C003B603B685AB2FB685BB213405BB2DBB2F4
:10095C00C3F10103DBB21A464FF40041024801F027
:10096C0099FA03E0000C0140000801403B685B1061
:10097C003B603B685AB2FB685BB213405BB2DBB2C4
:10098C00C3F10103DBB21A460421B24801F082FA2A
:10099C003B685B103B603B685AB2FB685BB2134030
:1009AC005BB2DBB2C3F10103DBB21A460821A948E2
:1009BC0001F070FA7B68022B40F0C38001224FF4E7
:1009CC008071A54801F066FA01224FF40071A2482B
:1009DC0001F060FA00224FF480619F4801F05AFA4E
:1009EC0001224FF400619C4801F054FA01224FF4AB
:1009FC008051994801F04EFA01224FF4005196486B
:100A0C0001F048FA01224FF48041934801F042FA78
:100A1C0001224FF40041904801F03CFA3B685AB275
:100A2C00FB685BB213405BB2DBB2C3F10103DBB218
:100A3C001A464FF48061874801F02CFA3B685B1032
:100A4C003B603B685AB2FB685BB213405BB2DBB2F3
:100A5C00C3F10103DBB21A464FF400617D4801F08B
:100A6C0019FA3B685B103B603B685AB2FB685BB29F
:100A7C0013405BB2DBB2C3F10103DBB21A464FF495
:100A8C008051744801F006FA3B685B103B603B6890
:100A9C005AB2FB685BB213405BB2DBB2C3F1010329
:100AAC00DBB21A464FF400516A4801F0F3F93B6887
:100ABC005B103B603B685AB2FB685BB213405BB2A5
:100ACC00DBB2C3F10103DBB21A464FF4804161483B
:100ADC0001F0E0F93B685B103B603B685AB2FB6885
:100AEC005BB213405BB2DBB2C3F10103DBB21A465B
:100AFC004FF40041574801F0CDF93B685B103B6067
:100B0C003B685AB2FB685BB213405BB2DBB2C3F119
:100B1C000103DBB21A4604214E4801F0BBF93B68D5
:100B2C005B103B603B685AB2FB685BB213405BB234
:100B3C00DBB2C3F10103DBB21A460821454801F0D0
:100B4C00A9F97B68032B40F0C98001224FF4807116
:100B5C00414801F09FF901224FF400713E4801F029
:100B6C0099F901224FF480613B4801F093F900227E
:100B7C004FF40061384801F08DF901224FF4805197
:100B8C00354801F087F901224FF40051324801F049
:100B9C0081F901224FF480412F4801F07BF90122A9
:100BAC004FF400412C4801F075F93B685AB2FB68D0
:100BBC005BB213405BB2DBB2C3F10103DBB21A468A
:100BCC004FF48061234801F065F93B685B103B6092
:100BDC003B685AB2FB685BB213405BB2DBB2C3F149
:100BEC000103DBB21A464FF400611A4801F052F9C6
:100BFC003B685B103B603B685AB2FB685BB21340CE
:100C0C005BB2DBB2C3F10103DBB21A464FF4805185
:100C1C00104801F03FF93B685B103B603B685AB2EF
:100C2C00FB685BB213405BB2DBB2C3F10103DBB216
:100C3C001A464FF40051074801F02CF93B685B1041
:100C4C003B603B685AB2FB685BB213405BB2DBB2F1
:100C5C0004E000BF00080140000C0140C3F1010397
:100C6C00DBB21A464FF48041B14801F013F93B68EE
:100C7C005B103B603B685AB2FB685BB213405BB2E3
:100C8C00DBB2C3F10103DBB21A464FF40041A848B2
:100C9C0001F000F93B685B103B603B685AB2FB68A3
:100CAC005BB213405BB2DBB2C3F10103DBB21A4699
:100CBC0004219F4801F0EEF83B685B103B603B68F9
:100CCC005AB2FB685BB213405BB2DBB2C3F10103F7
:100CDC00DBB21A460821964801F0DCF87B68042B3D
:100CEC0040F0C38001224FF48071924801F0D2F899
:100CFC0001224FF400718F4801F0CCF801224FF41F
:100D0C0080618C4801F0C6F801224FF400618948DB
:100D1C0001F0C0F800224FF48051864801F0BAF877
:100D2C0001224FF40051834801F0B4F801224FF432
:100D3C008041804801F0AEF801224FF400417D481B
:100D4C0001F0A8F83B685AB2FB685BB213405BB287
:100D5C00DBB2C3F10103DBB21A464FF48061744875
:100D6C0001F098F83B685B103B603B685AB2FB683B
:100D7C005BB213405BB2DBB2C3F10103DBB21A46C8
:100D8C004FF400616A4801F085F83B685B103B60EA
:100D9C003B685AB2FB685BB213405BB2DBB2C3F187
:100DAC000103DBB21A464FF48051614801F072F82E
:100DBC003B685B103B603B685AB2FB685BB213400C
:100DCC005BB2DBB2C3F10103DBB21A464FF4005144
:100DDC00574801F05FF83B685B103B603B685AB2C8
:100DEC00FB685BB213405BB2DBB2C3F10103DBB255
:100DFC001A464FF480414E4801F04CF83B685B10AA
:100E0C003B603B685AB2FB685BB213405BB2DBB22F
:100E1C00C3F10103DBB21A464FF40041444801F020
:100E2C0039F83B685B103B603B685AB2FB685BB2BD
:100E3C0013405BB2DBB2C3F10103DBB21A460421EF
:100E4C003B4801F027F83B685B103B603B685AB2AB
:100E5C00FB685BB213405BB2DBB2C3F10103DBB2E4
:100E6C001A460821324801F015F87B68052B40F032
:100E7C00C98001224FF480712E4801F00BF8012239
:100E8C004FF400712B4801F005F801224FF48061FA
:100E9C00284800F0FFFF01224FF40061254800F0C4
:100EAC00F9FF01224FF48051224800F0F3FF002299
:100EBC004FF400511F4800F0EDFF01224FF4804128
:100ECC001C4800F0E7FF01224FF40041194800F0E4
:100EDC00E1FF3B685AB2FB685BB213405BB2DBB21A
:100EEC00C3F10103DBB21A464FF48061104800F0E5
:100EFC00D1FF3B685B103B603B685AB2FB685BB24E
:100F0C0013405BB2DBB2C3F10103DBB21A464FF400
:100F1C000061074800F0BEFF3B685B103B603B681C
:100F2C005AB2FB685BB213405BB2DBB204E000BFA9
:100F3C0000080140000C0140C3F10103DBB21A466A
:100F4C004FF48051B14800F0A5FF3B685B103B604B
:100F5C003B685AB2FB685BB213405BB2DBB2C3F1C5
:100F6C000103DBB21A464FF40051A84800F092FF7F
:100F7C003B685B103B603B685AB2FB685BB213404A
:100F8C005BB2DBB2C3F10103DBB21A464FF4804112
:100F9C009E4800F07FFF3B685B103B603B685AB299
:100FAC00FB685BB213405BB2DBB2C3F10103DBB293
:100FBC001A464FF40041954800F06CFF3B685B10FB
:100FCC003B603B685AB2FB685BB213405BB2DBB26E
:100FDC00C3F10103DBB21A4604218C4800F05AFF1E
:100FEC003B685B103B603B685AB2FB685BB21340DA
:100FFC005BB2DBB2C3F10103DBB21A4608218348B2
:10100C0000F048FF7B68062B40F0C38001224FF4B0
:10101C0080717F4800F03EFF01224FF400717C4844
:10102C0000F038FF01224FF48061794800F032FF64
:10103C0001224FF40061764800F02CFF01224FF49E
:10104C008051734800F026FF01224FF40051704884
:10105C0000F020FF00224FF480416D4800F01AFF91
:10106C0001224FF400416A4800F014FF3B685AB269
:10107C00FB685BB213405BB2DBB2C3F10103DBB2C2
:10108C001A464FF48061614800F004FF3B685B1026
:10109C003B603B685AB2FB685BB213405BB2DBB29D
:1010AC00C3F10103DBB21A464FF40061574800F05C
:1010BC00F1FE3B685B103B603B685AB2FB685BB26D
:1010CC0013405BB2DBB2C3F10103DBB21A464FF43F
:1010DC0080514E4800F0DEFE3B685B103B603B6885
:1010EC005AB2FB685BB213405BB2DBB2C3F10103D3
:1010FC00DBB21A464FF40051444800F0CBFE3B687B
:10110C005B103B603B685AB2FB685BB213405BB24E
:10111C00DBB2C3F10103DBB21A464FF480413B480A
:10112C0000F0B8FE3B685B103B603B685AB2FB6852
:10113C005BB213405BB2DBB2C3F10103DBB21A4604
:10114C004FF40041314800F0A5FE3B685B103B605A
:10115C003B685AB2FB685BB213405BB2DBB2C3F1C3
:10116C000103DBB21A460421284800F093FE3B68C9
:10117C005B103B603B685AB2FB685BB213405BB2DE
:10118C00DBB2C3F10103DBB21A4608211F4800F0A1
:10119C0081FE7B68072B40F0C98001224FF48071DF
:1011AC001B4800F077FE01224FF40071184800F044
:1011BC0071FE01224FF48061154800F06BFE012294
:1011CC004FF40061124800F065FE01224FF480518B
:1011DC000F4800F05FFE01224FF400510C4800F064
:1011EC0059FE01224FF48041094800F053FE0022C1
:1011FC004FF40041064800F04DFE3B685AB2FB68C4
:10120C005BB213405BB2DBB204E000BF00080140EC
:10121C00000C0140C3F10103DBB21A464FF48061AC
:10122C00444800F037FE3B685B103B603B685AB2A9
:10123C00FB685BB213405BB2DBB2C3F10103DBB200
:10124C001A464FF400613B4800F024FE3B685B10EB
:10125C003B603B685AB2FB685BB213405BB2DBB2DB
:10126C00C3F10103DBB21A464FF48051314800F050
:10127C0011FE3B685B103B603B685AB2FB685BB28B
:10128C0013405BB2DBB2C3F10103DBB21A464FF47D
:10129C000051284800F0FEFD3B685B103B603B684A
:1012AC005AB2FB685BB213405BB2DBB2C3F1010311
:1012BC00DBB21A464FF480411E4800F0EBFD3B6850
:1012CC005B103B603B685AB2FB685BB213405BB28D
:1012DC00DBB2C3F10103DBB21A464FF400411548EF
:1012EC0000F0D8FD3B685B103B603B685AB2FB6872
:1012FC005BB213405BB2DBB2C3F10103DBB21A4643
:10130C0004210C4800F0C6FD3B685B103B603B6859
:10131C005AB2FB685BB213405BB2DBB2C3F10103A0
:10132C00DBB21A460821034800F0B4FD00BF1037A9
:10133C00BD4680BD0008014080B582B000AF78602A
:10134C007B68072B4AD801A252F823F079130008C6
:10135C008713000895130008A3130008B1130008A5
:10136C00BF130008CD130008DB1300081E4B1B78BD
:10137C0019460020FFF784F931E01B4B5B781946C6
:10138C000120FFF77DF92AE0174B9B7819460220C4
:10139C00FFF776F923E0144BDB7819460320FFF7AF
:1013AC006FF91CE0104B1B7919460420FFF768F904
:1013BC0015E00D4B5B7919460520FFF761F90EE03E
:1013CC00094B9B7919460620FFF75AF907E0064BA3
:1013DC00DB7919460720FFF753F900E000BF00BF87
:1013EC000837BD4680BD00BF1000002080B500AF9F
:1013FC0000F066FA00F072F800F0F8F800F0AAF8C5
:10140C00314801F0A5F94FF47A71002000F054F93D
:10141C004FF47A71012000F04FF9FA21022000F00C
:10142C004BF94FF47A71032000F046F9274B1B68F7
:10143C00012B0CD12021264800F044FD102124481A
:10144C0000F040FD4FF47A71002000F035F91F4B8D
:10145C005B68012B08D1FEF7D1FEFEF771FE4FF44D
:10146C007A71012000F028F9184B9B68012B12D1DE
:10147C00184B1B685A1C17490A601846FFF774F87A
:10148C00144B1B68042B02D1124B00221A60FA2158
:10149C00022000F011F90D4BDB68012BC6D10E4B6D
:1014AC001B685A1C0C490A601846FFF745FF0A4B8B
:1014BC001B68082B02D1084B00221A606421032000
:1014CC0000F0FAF8B2E700BF54000020C40000207E
:1014DC00000801404C0000205000002080B590B066
:1014EC0000AF07F1180328220021184601F0E0FC98
:1014FC003B1D00221A605A609A60DA601A6102235E
:10150C00BB610123BB621023FB6200237B6307F1E9
:10151C001803184600F0F0FC0346002B01D000F035
:10152C00C5F80F237B600023BB600023FB60002306
:10153C003B6100237B613B1D0021184600F05CFFE2
:10154C000346002B01D000F0B1F800BF4037BD4678
:10155C0080BD000080B586B000AF07F10803002203
:10156C001A605A609A60DA603B4600221A605A6030
:10157C001D4B4FF080421A601B4B41F63F725A6074
:10158C00194B00229A60184B0922DA60164B002284
:10159C001A61154B00229A61134801F089F8034631
:1015AC00002B01D000F082F84FF48053BB6007F1A0
:1015BC00080319460C4801F007FA0346002B01D02A
:1015CC0000F074F800233B6000237B603B46194617
:1015DC00054801F0DFFB0346002B01D000F066F854
:1015EC0000BF1837BD4680BD5400002080B586B0C2
:1015FC0000AF07F1080300221A605A609A60DA60A3
:10160C00224B9B69214A43F0040393611F4B9B6956
:10161C0003F004037B607B681C4B9B691B4A43F003
:10162C0008039361194B9B6903F008033B603B680B
:10163C0000224FF6FE71164800F02CFC00224FF6EB
:10164C007F71144800F026FC4FF6FE73BB6001233B
:10165C00FB6000233B6102237B6107F10803194601
:10166C000B4800F09DFA4FF67F73BB600123FB60C3
:10167C0000233B6102237B6107F1080319460548EF
:10168C0000F08EFA00BF1837BD4680BD0010024036
:10169C0000080140000C014080B582B000AF7860BA
:1016AC0000F02AF800BF0837BD4680BD80B400AFFB
:1016BC0072B600BFFEE7000080B483B000AF786064
:1016CC0039600A4A7B68002142F823103B68084ABB
:1016DC0082FB03129210DB17D21A06497B6841F881
:1016EC00232000BF0C37BD4680BC7047C4000020CF
:1016FC00676666669C00002080B483B000AF002350
:10170C007B601CE0124A7B6852F82330002B13DB01
:10171C000F4A7B6852F823305A1E0D497B6841F8FA
:10172C0023200B4A7B6852F82330002B04DC094A37
:10173C007B68012142F823107B6801337B607B6856
:10174C00092BDFDD00BF00BF0C37BD4680BC7047E6
:10175C009C000020C400002080B485B000AF154B65
:10176C009B69144A43F001039361124B9B6903F08C
:10177C000103BB60BB680F4BDB690E4A43F080531F
:10178C00D3610C4BDB6903F080537B607B680A4BA5
:10179C005B68FB60FB6823F0E063FB60FB6843F075
:1017AC008063FB60044AFB68536000BF1437BD467E
:1017BC0080BC7047001002400000014080B584B02E
:1017CC0000AF78607B681B68B3F1804F13D10C4B72
:1017DC00DB690B4A43F00103D361094BDB6903F06E
:1017EC000103FB60FB68002200211C2000F0A1F922
:1017FC001C2000F0BAF900BF1037BD4680BD00BFF9
:10180C000010024080B400AFFEE780B400AFFEE7EA
:10181C0080B400AFFEE780B400AFFEE780B400AF49
:10182C00FEE780B400AF00BFBD4680BC704780B4FB
:10183C0000AF00BFBD4680BC704780B400AF00BF96
:10184C00BD4680BC704780B500AF00F07FF800BF8C
:10185C0080BD000080B500AF024800F0C5FF00BF9E
:10186C0080BD00BF5400002080B400AF00BFBD4657
:10187C0080BC7047FFF7F8FF0B480C490C4A00235B
:10188C0002E0D458C4500433C4188C42F9D3094A2A
:10189C00094C002301E013600432A242FBD301F097
:1018AC00E3FAFFF7A3FD7047000000203000002092
:1018BC00102F000830000020F0000020FEE7000090
:1018CC0080B500AF084B1B68074A43F01003136048
:1018DC00032000F023F90F2000F008F8FFF73CFF7D
:1018EC000023184680BD00BF0020024080B582B0A6
:1018FC0000AF7860124B1A68124B1B7819464FF4E4
:10190C007A73B3FBF1F3B2FBF3F3184600F03BF937
:10191C000346002B01D001230EE07B680F2B0AD865
:10192C00002279684FF0FF3000F003F9064A7B681B
:10193C001360002300E0012318460837BD4680BD24
:10194C00240000202C0000202800002080B400AFD0
:10195C00054B1B781A46054B1B681344034A13604E
:10196C0000BFBD4680BC70472C000020EC0000205E
:10197C0080B400AF024B1B681846BD4680BC704754
:10198C00EC00002080B485B000AF78607B6803F079
:10199C000703FB600C4BDB68BB60BA684FF6FF03B8
:1019AC001340BB60FB681A02BB68134343F0BF6370
:1019BC0043F40033BB60044ABB68D36000BF1437E8
:1019CC00BD4680BC704700BF00ED00E080B400AFA6
:1019DC00044BDB681B0A03F007031846BD4680BCAA
:1019EC00704700BF00ED00E080B483B000AF034649
:1019FC00FB7197F90730002B0BDBFB7903F01F020F
:101A0C00064997F907305B09012000FA02F241F808
:101A1C00232000BF0C37BD4680BC704700E100E0BE
:101A2C0080B483B000AF03463960FB7197F907307F
:101A3C00002B0ADB3B68DAB20C4997F9073012012C
:101A4C00D2B20B4483F800230AE03B68DAB20849AF
:101A5C00FB7903F00F03043B1201D2B20B441A764C
:101A6C0000BF0C37BD4680BC704700BF00E100E0F2
:101A7C0000ED00E080B489B000AFF860B9607A6026
:101A8C00FB6803F00703FB61FB69C3F10703042B3D
:101A9C0028BF0423BB61FB690433062B02D9FB6905
:101AAC00033B00E000237B614FF0FF32BB6902FA7D
:101ABC0003F3DA43BB681A407B699A404FF0FF315D
:101ACC007B6901FA03F3D9437B680B401343184637
:101ADC002437BD4680BC704780B582B000AF7860BB
:101AEC007B68013BB3F1807F01D301230FE00A4AED
:101AFC007B68013B53600F214FF0FF30FFF790FFE5
:101B0C00054B00229A60044B07221A6000231846EA
:101B1C000837BD4680BD00BF10E000E080B582B044
:101B2C0000AF78607868FFF72DFF00BF0837BD461F
:101B3C0080BD80B586B000AF0346B9607A60FB7398
:101B4C0000237B61FFF742FF78617A68B968786996
:101B5C00FFF790FF024697F90F3011461846FFF732
:101B6C005FFF00BF1837BD4680BD80B582B000AFA7
:101B7C000346FB7197F907301846FFF735FF00BF96
:101B8C000837BD4680BD80B582B000AF78607868FC
:101B9C00FFF7A2FF034618460837BD4680BD00007C
:101BAC0080B48BB000AF7860396000237B62002377
:101BBC003B6248E101227B6A02FA03F3FB613B685A
:101BCC001B68FA691340BB61BA69FB699A4240F021
:101BDC0037813B685B68A34A93425ED0A14A93422B
:101BEC0075D8A14A934258D09F4A93426FD89F4AC6
:101BFC00934252D09D4A934269D89D4A93424CD00D
:101C0C009B4A934263D89B4A934246D0994A93424B
:101C1C005DD8122B2AD8122B59D801A252F823F0D6
:101C2C00A71C0008811C0008931C0008D51C000888
:101C3C00DB1C0008DB1C0008DB1C0008DB1C00089C
:101C4C00DB1C0008DB1C0008DB1C0008DB1C00088C
:101C5C00DB1C0008DB1C0008DB1C0008DB1C00087C
:101C6C00DB1C0008891C00089D1C0008824A93425A
:101C7C0013D02CE03B68DB683B6229E03B68DB68F7
:101C8C0004333B6224E03B68DB6808333B621FE0B3
:101C9C003B68DB680C333B621AE03B689B68002BAB
:101CAC0002D104233B6213E03B689B68012B05D1F6
:101CBC0008233B627B68FA691A6109E008233B62DE
:101CCC007B68FA695A6103E000233B6200E000BFC5
:101CDC00BB69FF2B01D87B6801E07B6804337B6117
:101CEC00BB69FF2B02D87B6A9B0002E07B6A083B36
:101CFC009B003B617B691A680F213B6901FA03F376
:101D0C00DB431A40396A3B6901FA03F31A437B69D6
:101D1C001A603B685B6803F08053002B00F09080E6
:101D2C00564B9B69554A43F001039361534B9B6996
:101D3C0003F00103BB60BB68514A7B6A9B0802330A
:101D4C0052F82330FB607B6A03F003039B000F22E5
:101D5C0002FA03F3DB43FA681340FB607B68494AE1
:101D6C0093420DD07B68484A934207D07B68474A20
:101D7C00934201D1022304E0032302E0012300E09B
:101D8C0000237A6A02F0030292009340FA6813432C
:101D9C00FB603B497B6A9B080233FA6841F82320BD
:101DAC003B685B6803F48013002B06D0384B9A68B1
:101DBC003749BB6913438B6006E0354B9A68BB69A6
:101DCC00DB43334913408B603B685B6803F40013BF
:101DDC00002B06D02E4BDA682D49BB691343CB6020
:101DEC0006E02B4BDA68BB69DB4329491340CB6017
:101DFC003B685B6803F40033002B06D0244B5A6815
:101E0C002349BB6913434B6006E0214B5A68BB69FD
:101E1C00DB431F4913404B603B685B6803F4803322
:101E2C00002B06D01A4B1A681949BB6913430B6077
:101E3C0006E0174B1A68BB69DB43154913400B606E
:101E4C007B6A01337B623B681A687B6A22FA03F374
:101E5C00002B7FF4AFAE00BF00BF2C37BD4680BC5B
:101E6C00704700BF0000321000003110000022103B
:101E7C000000211000001210000011100010024090
:101E8C000000014000080140000C0140001001401E
:101E9C000004014080B483B000AF78600B467B80B7
:101EAC0013467B707B78002B03D07A887B681A6191
:101EBC0003E07B881A047B681A6100BF0C37BD46AF
:101ECC0080BC704780B485B000AF78600B467B80D7
:101EDC007B68DB68FB607A88FB6813401A04FB683C
:101EEC00D9437B880B401A437B681A6100BF1437B7
:101EFC00BD4680BC7047000080B586B000AF7860EE
:101F0C007B68002B01D101236CE27B681B6803F01A
:101F1C000103002B00F08780924B5B6803F00C03ED
:101F2C00042B0CD08F4B5B6803F00C03082B12D1E5
:101F3C008C4B5B6803F48033B3F5803F0BD1894B3A
:101F4C001B6803F40033002B6CD07B685B68002BA0
:101F5C0068D1012346E27B685B68B3F5803F06D10C
:101F6C00804B1B687F4A43F4803313602EE07B6800
:101F7C005B68002B0CD17B4B1B687A4A23F48033B3
:101F8C001360784B1B68774A23F4802313601DE0A1
:101F9C007B685B68B3F5A02F0CD1724B1B68714A40
:101FAC0043F4802313606F4B1B686E4A43F48033F9
:101FBC0013600BE06B4B1B686A4A23F4803313608D
:101FCC00684B1B68674A23F4802313607B685B684B
:101FDC00002B13D0FFF7CCFC386108E0FFF7C8FCEE
:101FEC0002463B69D31A642B01D90323FAE15D4BFA
:101FFC001B6803F40033002BF0D014E0FFF7B8FC9F
:10200C00386108E0FFF7B4FC02463B69D31A642B35
:10201C0001D90323E6E1534B1B6803F40033002B77
:10202C00F0D100E000BF7B681B6803F00203002BBB
:10203C0063D04C4B5B6803F00C03002B0BD0494B6B
:10204C005B6803F00C03082B1CD1464B5B6803F454
:10205C008033002B16D1434B1B6803F00203002B7B
:10206C0005D07B681B69012B01D00123BAE13D4BE4
:10207C001B6823F0F8027B685B69DB00394913436A
:10208C000B603AE07B681B69002B20D0364B012299
:10209C001A60FFF76DFC386108E0FFF769FC024637
:1020AC003B69D31A022B01D903239BE12D4B1B68EF
:1020BC0003F00203002BF0D02A4B1B6823F0F8022C
:1020CC007B685B69DB00274913430B6015E0264BEB
:1020DC0000221A60FFF74CFC386108E0FFF748FC5F
:1020EC0002463B69D31A022B01D903237AE11D4B1B
:1020FC001B6803F00203002BF0D17B681B6803F014
:10210C000803002B3AD07B689B69002B19D0174B26
:10211C0001221A60FFF72CFC386108E0FFF728FC5D
:10212C0002463B69D31A022B01D903235AE10D4B0A
:10213C005B6A03F00203002BF0D0012000F09AFA46
:10214C001CE00A4B00221A60FFF712FC38610FE00A
:10215C00FFF70EFC02463B69D31A022B08D9032366
:10216C0040E100BF001002400000424280044242A5
:10217C009E4B5B6A03F00203002BE9D17B681B6862
:10218C0003F00403002B00F0A6800023FB75974B93
:10219C00DB6903F08053002B0DD1944BDB69934A20
:1021AC0043F08053D361914BDB6903F08053BB60E8
:1021BC00BB680123FB758E4B1B6803F48073002BEB
:1021CC0018D18B4B1B688A4A43F480731360FFF75A
:1021DC00CFFB386108E0FFF7CBFB02463B69D31A13
:1021EC00642B01D90323FDE0814B1B6803F480733E
:1021FC00002BF0D07B68DB68012B06D17B4B1B6A74
:10220C007A4A43F0010313622DE07B68DB68002BF4
:10221C000CD1764B1B6A754A23F001031362734B86
:10222C001B6A724A23F0040313621CE07B68DB68B0
:10223C00052B0CD16D4B1B6A6C4A43F004031362E3
:10224C006A4B1B6A694A43F0010313620BE0674B4C
:10225C001B6A664A23F001031362644B1B6A634AD0
:10226C0023F0040313627B68DB68002B15D0FFF7A7
:10227C007FFB38610AE0FFF77BFB02463B69D31A10
:10228C0041F28832934201D90323ABE0574B1B6ACE
:10229C0003F00203002BEED014E0FFF769FB38616A
:1022AC000AE0FFF765FB02463B69D31A41F288321C
:1022BC00934201D9032395E04C4B1B6A03F00203B4
:1022CC00002BEED1FB7D012B05D1484BDB69474A36
:1022DC0023F08053D3617B68DB69002B00F0818095
:1022EC00424B5B6803F00C03082B61D07B68DB6905
:1022FC00022B46D13F4B00221A60FFF739FB3861A5
:10230C0008E0FFF735FB02463B69D31A022B01D9D3
:10231C00032367E0354B1B6803F00073002BF0D1EF
:10232C007B681B6AB3F5803F08D1304B5B6823F4A4
:10233C0000327B689B682D4913434B602B4B5B68C9
:10234C0023F474127B68196A7B685B6A0B43274918
:10235C0013434B60274B01221A60FFF709FB3861CE
:10236C0008E0FFF705FB02463B69D31A022B01D9A3
:10237C00032337E01D4B1B6803F00073002BF0D0D8
:10238C002FE01C4B00221A60FFF7F2FA386108E0CC
:10239C00FFF7EEFA02463B69D31A022B01D903234D
:1023AC0020E0124B1B6803F00073002BF0D118E0F7
:1023BC007B68DB69012B01D1012313E00B4B5B68BC
:1023CC00FB60FB6803F480327B681B6A9A4206D17F
:1023DC00FB6803F470127B685B6A9A4201D001239C
:1023EC0000E0002318461837BD4680BD001002409F
:1023FC00007000406000424280B584B000AF78604D
:10240C0039607B68002B01D10123D0E06A4B1B683B
:10241C0003F007033A689A4210D9674B1B6823F004
:10242C00070265493B6813430B60634B1B6803F061
:10243C0007033A689A4201D00123B8E07B681B6815
:10244C0003F00203002B20D07B681B6803F004030D
:10245C00002B05D0594B5B68584A43F4E06353603A
:10246C007B681B6803F00803002B05D0534B5B689B
:10247C00524A43F460535360504B5B6823F0F002B4
:10248C007B689B684D4913434B607B681B6803F06A
:10249C000103002B40D07B685B68012B07D1474BB5
:1024AC001B6803F40033002B15D101237FE07B68FC
:1024BC005B68022B07D1414B1B6803F00073002BA8
:1024CC0009D1012373E03D4B1B6803F00203002B81
:1024DC0001D101236BE0394B5B6823F003027B686D
:1024EC005B68364913434B60FFF742FAF8600AE029
:1024FC00FFF73EFA0246FB68D31A41F28832934248
:10250C0001D9032353E02D4B5B6803F00C027B686D
:10251C005B689B009A42EBD1274B1B6803F00703C7
:10252C003A689A4210D2244B1B6823F007022249C6
:10253C003B6813430B60204B1B6803F007033A689E
:10254C009A4201D0012332E07B681B6803F004033C
:10255C00002B08D0194B5B6823F4E0627B68DB68C6
:10256C00164913434B607B681B6803F00803002B70
:10257C0009D0124B5B6823F460527B681B69DB004B
:10258C000E4913434B6000F021F802460B4B5B687D
:10259C001B0903F00F030A49CB5C22FA03F3094A27
:1025AC001360094B1B681846FFF7A0F90023184667
:1025BC001037BD4680BD00BF002002400010024015
:1025CC00E42E0008240000202800002080B487B0EE
:1025DC0000AF0023FB600023BB6000237B61002362
:1025EC007B6000233B611E4B5B68FB60FB6803F068
:1025FC000C03042B02D0082B03D027E0194B3B61B2
:10260C0027E0FB689B0C03F00F03174AD35C7B603D
:10261C00FB6803F48033002B10D0114B5B685B0C10
:10262C0003F00103114AD35CBB607B680D4A02FBCB
:10263C0003F2BB68B2FBF3F37B6104E07B680C4AEA
:10264C0002FB03F37B617B693B6102E0054B3B6161
:10265C0000BF3B6918461C37BD4680BC704700BFA5
:10266C000010024000127A00F42E0008042F00081B
:10267C0000093D0080B485B000AF78600A4B1B6840
:10268C000A4AA2FB03235B0A7A6802FB03F3FB6092
:10269C0000BFFB685A1EFA60002BF9D100BF00BFC7
:1026AC001437BD4680BC704724000020D34D621007
:1026BC0080B582B000AF78607B68002B01D101231C
:1026CC0041E07B6893F83D30DBB2002B06D17B6890
:1026DC00002283F83C207868FFF770F87B680222B0
:1026EC0083F83D207B681A687B68043319461046D2
:1026FC0000F056FA7B68012283F846207B680122A1
:10270C0083F83E207B68012283F83F207B680122FE
:10271C0083F840207B68012283F841207B680122EA
:10272C0083F842207B68012283F843207B680122D6
:10273C0083F844207B68012283F845207B680122C2
:10274C0083F83D20002318460837BD4680BD0000A5
:10275C0080B485B000AF78607B6893F83D30DBB215
:10276C00012B01D0012335E07B68022283F83D2048
:10277C007B681B68DA687B681B6842F00102DA60D0
:10278C007B681B68164A934209D07B681B68B3F1BF
:10279C00804F04D07B681B68124A934211D17B682E
:1027AC001B689B6803F00703FB60FB68062B10D0CB
:1027BC007B681B681A687B681B6842F001021A6010
:1027CC0007E07B681B681A687B681B6842F0010293
:1027DC001A60002318461437BD4680BC704700BFF2
:1027EC00002C01400004004080B584B000AF78603C
:1027FC007B681B68DB68FB607B681B681B69BB60C4
:10280C00BB6803F00203002B20D0FB6803F002032B
:10281C00002B1BD07B681B686FF002021A617B686F
:10282C0001221A777B681B689B6903F00303002B5A
:10283C0003D0786800F098F905E0786800F08BF91F
:10284C00786800F09AF97B6800221A77BB6803F06D
:10285C000403002B20D0FB6803F00403002B1BD0D7
:10286C007B681B686FF004021A617B6802221A777E
:10287C007B681B689B6903F44073002B03D078685A
:10288C0000F072F905E0786800F065F9786800F0FE
:10289C0074F97B6800221A77BB6803F00803002BDD
:1028AC0020D0FB6803F00803002B1BD07B681B684F
:1028BC006FF008021A617B6804221A777B681B6828
:1028CC00DB6903F00303002B03D0786800F04CF9AC
:1028DC0005E0786800F03FF9786800F04EF97B6805
:1028EC0000221A77BB6803F01003002B20D0FB6882
:1028FC0003F01003002B1BD07B681B686FF01002D9
:10290C001A617B6808221A777B681B68DB6903F401
:10291C004073002B03D0786800F026F905E0786846
:10292C0000F019F9786800F028F97B6800221A7712
:10293C00BB6803F00103002B0CD0FB6803F0010310
:10294C00002B07D07B681B686FF001021A61786856
:10295C00FEF7A2FEBB6803F08003002B0CD0FB68D3
:10296C0003F08003002B07D07B681B686FF080029C
:10297C001A61786800F06FFABB6803F04003002B13
:10298C000CD0FB6803F04003002B07D07B681B685E
:10299C006FF040021A61786800F0F8F8BB6803F039
:1029AC002003002B0CD0FB6803F02003002B07D076
:1029BC007B681B686FF020021A61786800F042FA9D
:1029CC0000BF1037BD4680BD80B584B000AF7860C5
:1029DC0039600023FB737B6893F83C30012B01D1E9
:1029EC000223B4E07B68012283F83C207B6802223E
:1029FC0083F83D207B681B689B68BB60BB6823F039
:102A0C007703BB60BB6823F47F43BB607B681B68A8
:102A1C00BA689A603B681B68B3F5005F3ED0B3F5AB
:102A2C00005F00F28780B3F5805F00F08680B3F51D
:102A3C00805F7FD8702B1AD0702B7BD8602B50D036
:102A4C00602B77D8502B3CD0502B73D8402B58D0C0
:102A5C00402B6FD8302B64D0302B6BD8202B60D010
:102A6C00202B67D8002B5CD0102B5AD062E07B68EF
:102A7C0018683B6899683B685A683B68DB6800F0EB
:102A8C006AF97B681B689B68BB60BB6843F0770383
:102A9C00BB607B681B68BA689A604FE07B681868FB
:102AAC003B6899683B685A683B68DB6800F053F9EF
:102ABC007B681B689A687B681B6842F480429A604A
:102ACC003CE07B6818683B6859683B68DB681A46D1
:102ADC0000F0CAF87B681B685021184600F021F9F9
:102AEC002CE07B6818683B6859683B68DB681A46C1
:102AFC0000F0E8F87B681B686021184600F011F9BB
:102B0C001CE07B6818683B6859683B68DB681A46B0
:102B1C0000F0AAF87B681B684021184600F001F908
:102B2C000CE07B681A683B681B681946104600F07D
:102B3C00F8F803E00123FB7300E000BF7B6801227F
:102B4C0083F83D207B68002283F83C20FB7B1846F1
:102B5C001037BD4680BD80B483B000AF786000BF35
:102B6C000C37BD4680BC704780B483B000AF786032
:102B7C0000BF0C37BD4680BC704780B483B000AF3B
:102B8C00786000BF0C37BD4680BC704780B483B002
:102B9C0000AF786000BF0C37BD4680BC70470000AA
:102BAC0080B485B000AF786039607B681B68FB60CF
:102BBC007B682B4A934207D07B68B3F1804F03D0DC
:102BCC007B68284A934208D1FB6823F07003FB60B2
:102BDC003B685B68FA681343FB607B68204A93424E
:102BEC0007D07B68B3F1804F03D07B681D4A9342BA
:102BFC0008D1FB6823F44073FB603B68DB68FA6820
:102C0C001343FB60FB6823F080023B685B69134352
:102C1C00FB607B68FA681A603B689A687B68DA62CA
:102C2C003B681A687B689A627B680D4A934203D1B1
:102C3C003B681A697B681A637B6801225A617B685E
:102C4C001B6903F00103002B05D07B681B6923F083
:102C5C0001027B681A6100BF1437BD4680BC704707
:102C6C00002C01400004004080B487B000AFF86035
:102C7C00B9607A60FB681B6A7B61FB681B6A23F096
:102C8C000102FB681A62FB689B693B613B6923F09C
:102C9C00F0033B617B681B013A6913433B617B6921
:102CAC0023F00A037B617A69BB6813437B61FB6881
:102CBC003A699A61FB687A691A6200BF1C37BD4693
:102CCC0080BC704780B487B000AFF860B9607A60A0
:102CDC00FB681B6A7B61FB681B6A23F01002FB68B4
:102CEC001A62FB689B693B613B6923F470433B614F
:102CFC007B681B033A6913433B617B6923F0A00398
:102D0C007B61BB681B017A6913437B61FB683A6981
:102D1C009A61FB687A691A6200BF1C37BD4680BC99
:102D2C00704780B485B000AF786039607B689B6871
:102D3C00FB60FB6823F07003FB603A68FB6813438D
:102D4C0043F00703FB607B68FA689A6000BF143796
:102D5C00BD4680BC704780B487B000AFF860B960E6
:102D6C007A603B60FB689B687B617B6923F47F43E3
:102D7C007B613B681A027B681A43BB6813437A6910
:102D8C0013437B61FB687A699A6000BF1C37BD46B0
:102D9C0080BC704780B485B000AF786039607B68C8
:102DAC0093F83C30012B01D1022341E07B680122D6
:102DBC0083F83C207B68022283F83D207B681B68EB
:102DCC005B68FB607B681B689B68BB60FB6823F0DF
:102DDC007003FB603B681B68FA681343FB607B68FD
:102DEC001B68FA685A607B681B68144A934209D0C6
:102DFC007B681B68B3F1804F04D07B681B68104A5A
:102E0C0093420CD1BB6823F08003BB603B685B68CA
:102E1C00BA681343BB607B681B68BA689A607B68AE
:102E2C00012283F83D207B68002283F83C2000239C
:102E3C0018461437BD4680BC704700BF002C0140BB
:102E4C000004004080B483B000AF786000BF0C3742
:102E5C00BD4680BC704780B483B000AF786000BFC3
:102E6C000C37BD4680BC704770B500260C4D0D4C20
:102E7C00641BA410A64209D100F022F800260A4DCA
:102E8C000A4C641BA410A64205D170BD55F8043B36
:102E9C0098470136EEE755F8043B98470136F2E7C0
:102EAC00082F0008082F0008082F00080C2F000816
:102EBC0003460244934200D1704703F8011BF9E723
:102ECC00F8B500BFF8BC08BC9E467047F8B500BF0B
:082EDC00F8BC08BC9E467047DB
:102EE40000000000000000000102030406070809B6
:102EF40002030405060708090A0B0C0D0E0F101037
:042F040001020000C6
:042F0800310100088B
:042F0C000D010008AB
:102F100001000000020000000300000004000000A7
:102F200001020304050607080F0000000800000066
:102F30003200000000127A001000000001000000C2
:040000050800188156
:00000001FF
